:020000040800F2
:10000000008000205D3F00080F1400081114000854
:10001000131400081514000817140008000000004D
:10002000000000000000000000000000191400089B
:100030001B140008000000001D1400081F14000815
:10004000AD3F0008AD3F000821140008AD3F000897
:10005000AD3F0008AD3F0008AD3F0008AD3F0008D0
:10006000AD3F0008AD3F0008AD3F0008AD3F0008C0
:10007000AD3F0008AD3F0008AD3F00083114000857
:10008000AD3F0008AD3F0008AD3F0008AD3F0008A0
:10009000AD3F0008AD3F0008AD3F0008AD3F000890
:1000A000AD3F0008AD3F0008AD3F0008AD3F000880
:1000B000AD3F0008AD3F0008AD3F0008AD3F000870
:1000C000AD3F0008AD3F0008AD3F0008AD3F000860
:1000D000AD3F0008AD3F000841140008AD3F0008E7
:1000E000AD3F0008AD3F000851140008AD3F0008C7
:1000F000AD3F0008AD3F0008AD3F0008AD3F000830
:10010000AD3F0008AD3F000861140008AD3F000896
:10011000AD3F0008AD3F0008AD3F0008AD3F00080F
:10012000AD3F0008AD3F0008AD3F0008AD3F0008FF
:08013000AD3F0008AD3F0008DF
:1001380010B5054C237833B9044B13B10448AFF319
:1001480000800123237010BD300100200000000052
:10015800C847010808B5034B1BB103490348AFF36F
:10016800008008BD0000000034010020C8470108D5
:10017800034613F8012B002AFBD1181A01387047DF
:1001880081F0004102E000BF83F0004330B54FEA40
:1001980041044FEA430594EA050F08BF90EA020FAD
:1001A8001FBF54EA000C55EA020C7FEA645C7FEA40
:1001B800655C00F0E2804FEA5454D4EB5555B8BF63
:1001C8006D420CDD2C4480EA020281EA030382EAD4
:1001D800000083EA010180EA020281EA0303362D66
:1001E80088BF30BD11F0004F4FEA01314FF4801C39
:1001F8004CEA113102D0404261EB410113F0004F4B
:100208004FEA03334CEA133302D0524263EB430301
:1002180094EA050F00F0A780A4F10104D5F1200E9F
:100228000DDB02FA0EFC22FA05F2801841F10001FA
:1002380003FA0EF2801843FA05F359410EE0A5F1CE
:1002480020050EF1200E012A03FA0EFC28BF4CF0FF
:10025800020C43FA05F3C01851EBE37101F00045B5
:1002680007D54FF0000EDCF1000C7EEB00006EEBC2
:100278000101B1F5801F1BD3B1F5001F0CD349084C
:100288005FEA30004FEA3C0C04F101044FEA4452A3
:1002980012F5800F80F09A80BCF1004F08BF5FEA2A
:1002A800500C50F1000041EB045141EA050130BD0A
:1002B8005FEA4C0C404141EB0101013C28BFB1F51C
:1002C800801FE9D291F0000F04BF01460020B1FA67
:1002D80081F308BF2033A3F10B03B3F120020CDA3A
:1002E8000C3208DD02F1140CC2F10C0201FA0CF018
:1002F80021FA02F10CE002F11402D8BFC2F1200C7D
:1003080001FA02F120FA0CFCDCBF41EA0C01904032
:10031800E41AA2BF01EB0451294330BD6FEA04047B
:100328001F3C1CDA0C340EDC04F11404C4F1200266
:1003380020FA04F001FA02F340EA030021FA04F378
:1003480045EA030130BDC4F10C04C4F1200220FACF
:1003580002F001FA04F340EA0300294630BD21FA0D
:1003680004F0294630BD94F0000F83F4801306BFD3
:1003780081F480110134013D4EE77FEA645C18BFC7
:100388007FEA655C29D094EA050F08BF90EA020F5E
:1003980005D054EA000C04BF1946104630BD91EA56
:1003A800030F1EBF0021002030BD5FEA545C05D159
:1003B8004000494128BF41F0004130BD14F5800498
:1003C8003CBF01F5801130BD01F0004545F0FE410C
:1003D80041F470014FF0000030BD7FEA645C1ABF41
:1003E800194610467FEA655C1CBF0B46024650EA78
:1003F800013406BF52EA033591EA030F41F40021A4
:1004080030BD00BF90F0000F04BF0021704730B529
:100418004FF4806404F132044FF000054FF00001FE
:1004280050E700BF90F0000F04BF0021704730B5BF
:100438004FF4806404F1320410F0004548BF404294
:100448004FF000013EE700BF42004FEAE2014FEAE9
:1004580031014FEA02701FBF12F07F4393F07F4FC4
:1004680081F06051704732F07F4208BF704793F0C7
:100478007F4F04BF41F40021704730B54FF46074DA
:1004880001F0004521F000411CE700BF50EA0102DD
:1004980008BF704730B54FF000050AE050EA010286
:1004A80008BF704730B511F0004502D5404261EBF6
:1004B80041014FF4806404F132045FEA915C3FF437
:1004C800D8AE4FF003025FEADC0C18BF03325FEAD4
:1004D800DC0C18BF033202EBDC02C2F1200300FA85
:1004E80003FC20FA02F001FA03FE40EA0E0021FAAA
:1004F80002F11444BDE600BF4FF0FF3C06E000BF28
:100508004FF0010C02E000BF4FF0010C4DF804CD94
:100518004FEA410C7FEA6C5C4FEA430C18BF7FEA54
:100528006C5C1BD001B050EA410C0CBF52EA430C82
:1005380091EA030F02BF90EA020F0020704710F102
:10054800000F91EA030F58BF994208BF90422CBF91
:10055800D8176FEAE37040F0010070474FEA410C8A
:100568007FEA6C5C02D150EA013C07D14FEA430CA8
:100578007FEA6C5CD6D152EA033CD3D05DF8040B19
:10058800704700BF8446104662468C46194663464B
:1005980000E000BF01B5FFF7B7FF002848BF10F122
:1005A800000F01BD4DF808EDFFF7F4FF0CBF012067
:1005B80000205DF808FB00BF4DF808EDFFF7EAFFE3
:1005C80034BF012000205DF808FB00BF4DF808ED9E
:1005D800FFF7E0FF94BF012000205DF808FB00BF93
:1005E8004DF808EDFFF7CEFF94BF012000205DF81D
:1005F80008FB00BF4DF808EDFFF7C4FF34BF01202A
:1006080000205DF808FB00BF4FEA410212F5001216
:1006180015D211D56FF47873B3EB625212D94FEA41
:10062800C12343F0004343EA505311F0004F23FA2B
:1006380002F018BF404270474FF00000704750EA80
:10064800013005D111F0004008BF6FF0004070473D
:100658004FF00000704700BF80F0004002E000BF8C
:1006680081F0004142001FBF5FEA410392EA030F95
:100678007FEA226C7FEA236C6AD04FEA1262D2EBDF
:100688001363C1BFD218414048404140B8BF5B42E4
:10069800192B88BF704710F0004F40F4000020F07D
:1006A8007F4018BF404211F0004F41F4000121F093
:1006B8007F4118BF494292EA030F3FD0A2F10102DD
:1006C80041FA03FC10EB0C00C3F1200301FA03F11B
:1006D80000F0004302D5494260EB4000B0F5000F3E
:1006E80013D3B0F1807F06D340084FEA310102F1FD
:1006F8000102FE2A51D2B1F1004F40EBC25008BFAF
:1007080020F0010040EA03007047490040EB000078
:10071800013A28BFB0F5000FEDD2B0FA80FCACF179
:10072800080CB2EB0C0200FA0CF0AABF00EBC250A6
:1007380052421843BCBFD0401843704792F0000F94
:1007480081F4000106BF80F400000132013BB5E7E7
:100758004FEA41037FEA226C18BF7FEA236C21D05D
:1007680092EA030F04D092F0000F08BF08467047C2
:1007780090EA010F1CBF0020704712F07F4F04D190
:10078800400028BF40F00040704712F100723CBFA3
:1007980000F50000704700F0004343F0FE4040F4CD
:1007A800000070477FEA226216BF08467FEA23638B
:1007B8000146420206BF5FEA412390EA010F40F476
:1007C800800070474FF0000304E000BF10F00043C2
:1007D80048BF40425FEA000C08BF704743F09643A9
:1007E80001464FF000001CE050EA010208BF7047C4
:1007F8004FF000030AE000BF50EA010208BF70474B
:1008080011F0004302D5404261EB41015FEA010C5F
:1008180002BF84460146002043F0B64308BFA3F157
:100828008053A3F50003BCFA8CF2083AA3EBC25339
:1008380010DB01FA02FC634400FA02FCC2F1200258
:10084800BCF1004F20FA02F243EB020008BF20F08F
:100858000100704702F1200201FA02FCC2F12002F5
:1008680050EA4C0021FA02F243EB020008BF20EAEA
:10087800DC70704753B94AB9002908BF00281CBF6B
:100888004FF0FF314FF0FF3000F088B9ADF1080CA0
:100898006DE904CE00F006F8DDF804E0DDE9022396
:1008A80004B070472DE9F047089D8E4604468846F7
:1008B800002B4AD18A42174662D9B2FA82F64EB163
:1008C800C6F1200301FA06F820FA03F3B74043EA19
:1008D8000808B4404FEA174E1FFA87FCB8FBFEF130
:1008E800230C0EFB118843EA084301FB0CF29A42E1
:1008F80009D9FB1801F1FF3080F0EA809A4240F2F2
:10090800E78002393B449A1AA3B2B2FBFEF00EFB11
:10091800102243EA024300FB0CFC9C4509D9FB1852
:1009280000F1FF3280F0D6809C4540F2D3803B44F2
:10093800023840EA0140A3EB0C0300211DB1F3404B
:100948000022C5E90032BDE8F0878B4205D90DB118
:10095800C5E9000100210846F5E7B3FA83F100294B
:1009680046D1734502D3824200F20581841A6EEBA8
:10097800030201209046002DE5D0C5E90048E2E7D2
:10098800002A00F09080B2FA82F6002E40F0A4808F
:100998008A1A030C4FEA174E80B2BCB20121B2FB8F
:1009A800FEFC0EFB1C2243EA024304FB0CF29A42B3
:1009B80007D9FB180CF1FF3802D29A4200F2E08006
:1009C800C4469B1AB3FBFEF20EFB123340EA034304
:1009D80002FB04F49C4207D9FB1802F1FF3002D253
:1009E8009C4200F2CA8002461B1B42EA0C40A5E763
:1009F800C1F120068B4022FA06F71F430EFA01F4D4
:100A080020FA06F32EFA06FE4FEA1749234300FAA6
:100A180001F81FFA87FCBEFBF9F01C0C09FB10EE6D
:100A280044EA0E4400FB0CFEA64502FA01F209D97D
:100A38003C1900F1FF3A80F09C80A64540F299806D
:100A480002383C44A4EB0E041FFA83FEB4FBF9F30E
:100A580009FB13444EEA044403FB0CFCA44508D9E3
:100A68003C1903F1FF3E80F08280A4457FD9023B08
:100A78003C4443EA0040A4EB0C04A0FB02EC6445B0
:100A88007346E14662D35FD05DB1B8EB030264EB15
:100A9800090404FA06F622FA01F31E43CC40C5E91C
:100AA800006400214FE7B1FBF2FC010C41EA0E4162
:100AB80080B240EA01423B4638463C46B846BE460C
:100AC8002026B1FBF7F1A2EB080241EA0C4166E7E8
:100AD800014618E710462CE7C6F120022EFA02F369
:100AE800B740B14020FA02F24FEA174E0A43B3FB6F
:100AF800FEF8BCB20EFB1833110C41EA034108FBA7
:100B080004F9B04089454FEA104380B23ED97918BC
:100B180008F1FF3C01D289451FD8A1EB0901B1FBBF
:100B2800FEF909FB04F80EFB191192B242EA0142E0
:100B3800424529D2BA1809F1FF31C4D24245C2D27E
:100B4800A9F102013A44BEE7F0459DD2BEEB02038B
:100B58006CEB070C0138E14696E7A7EB0909494415
:100B6800A8F1020CB1FBFEF909FB04F8DBE77346B8
:100B78007FE7504666E70846FDE63B44023A33E71E
:100B8800ACF1020C3B441CE749469CE7A1EB090188
:100B9800C446B1FBFEF909FB04F8C4E7704700BF7F
:100BA80008B51348134B03604FF00043436000231C
:100BB8008360C360036104224261037643768376CF
:100BC8000122C26180F820304362836280F82C30B1
:100BD8004FF48052026307224263826380F83C30FC
:100BE800C36403F0CBFA00B908BD00F017FBFBE7BC
:100BF8004C010020002401400268094B9A4200D0B1
:100C0800704782B04FF0B0431A6E42F400721A6611
:100C18001B6E03F400730193019B02B0704700BF81
:100C2800002401400268054B9A4200D070474FF0FB
:100C3800B042136E23F400731366F7E700240140F3
:100C480030B585B004460023019302930393FFF760
:100C5800A7FF164803F0CAFEF8B9019400230293CF
:100C6800039301A9114803F003FCC8B90F4803F026
:100C7800C1FDC0B90D4C4FF0FF31204603F096FB83
:100C8800204603F093FE204603F0EFFB054620467E
:100C980003F02CFE284605B030BD00F0BFFADCE7B3
:100CA80000F0BCFAE2E700F0B9FAE3E74C010020F3
:100CB800014B024A1A6070474C0100200024014091
:100CC80008B50D48FFF7BCFFA0B103460B4AB2F8C0
:100CD800AA004FF6FF72904207D040F6E44202FBAA
:100CE80000F0B0FBF3F080B205E00548B0FBF3F08C
:100CF80080B200E0002008BD002000B40075FF1F8E
:100D0800D8084C0010B582B00023ADF80630FFF7C4
:100D1800D7FF04462148FFF793FF214BB3F8C820BB
:100D2800B3F8A8108A421DD000FB04F39B081D48A5
:100D3800A0FB0303C1EB5313642000FB03F3521A17
:100D480093FBF2F31E331BB2ADF80630BDF8063044
:100D58001BB21B021BB2ADF80630BDF8060000B28C
:100D680002B010BD04FB00F00F4BA3FB0023C41A14
:100D780003EB5403DB0A4FF47A7202FB03F3A3F587
:100D88003923A3F50C63094A82FB0312DB17C3EB73
:100D9800A2231E331BB2ADF80630D7E7001000B00F
:100DA8000075FF1F9F00EE0901011000AD8BDB6885
:100DB80000B583B04FF0B0439A6C42F004029A64D5
:100DC8009A6C02F004020192019A9A6C42F00102B4
:100DD8009A649B6C03F001030093009B002202219C
:100DE8000F2003F009FF0F2003F016FF03B05DF892
:100DF80004FB002301E0083008338B420AD2426822
:100E0800D0F800C0B2F1FF3F08BFBCF1FF3FF2D0FD
:100E1800012070470020704730B108B539B192B24F
:100E280012F09AFC002008BD6FF0050070476FF0C3
:100E38000500F8E708B504F0A5F978B9094B9A69EF
:100E480042F040429A614CF2FA321A6104F0B2F967
:100E580008B9002008BD6FF00400FBE76FF004003C
:100E6800F8E700BF0040005870B584B00023039332
:100E7800002839D00E460446FFF7DCFF054610B1BE
:100E8800284604B070BD04F07DF980BB02230093AE
:100E980004F178431748D0F8E015174A02EA81218F
:100EA800B3FBF1FC01FB1C33DB0A0193A11901F12F
:100EB80078410139D0F8E00502EA8022B1FBF2F06E
:100EC80002FB1011C3EBD1230133029303A9684637
:100ED80004F046FA18B1022804D06FF0010504F0B6
:100EE80069F9CDE70125FAE76FF00505C8E76FF066
:100EF8000405C5E70070FF1F00FCFF032DE9F04F54
:100F080089B003900492002800F0B48083460E460E
:100F1800002900F0B38012F0070F40F0B38010F002
:100F28000703059340F0B280FFF784FF019018B1E2
:100F3800019809B0BDE8F08F04F024F9002840F0CA
:100F4800A980039C04F17842544BD3F8E035544906
:100F580001EA8321B2FBF1F301FB1322D30A0693C2
:100F6800049BE31803F17843013BB3FBF1F001FB69
:100F78001033DB0AA3EBD2230133012B07D9C4F3C7
:100F88000A09C9F50069DDF818A0079331E0DDF812
:100F98001090F8E7C84637465C46059DCDF808B07E
:100FA800454515D205EB070BDBE900232146012057
:100FB80004F04EF9002847D120686268E959DBF847
:100FC80004309A4208BF884244D108340835E7E71C
:100FD800DDF808B0019B002B45D1CB444E44049B5F
:100FE800A3EB0909B9F5006F28BF4FF400690AF1AE
:100FF800010A069B079A1344534534D90AF58034ED
:10100800E40249460398FFF7F4FE0028C2D0254BB6
:10101800186828B34FF400622146FFF7FDFE214B04
:101028001B68CBF30A001FFA89F23146184412F004
:1010380093FB4FF400612046FFF716FFB0B9194B38
:101048001F684FF40068A8E7DDF808B06FF00303E5
:101058000193BFE7DDF808B06FF003030193B9E728
:101068006FF00503019304F0A5F861E76FF0010341
:101078000193F8E76FF00503019359E76FF0050353
:10108800019355E76FF00503019351E76FF00503EE
:1010980001934DE76FF00403019349E70070FF1FC8
:1010A80000FCFF03B0010020014B186000207047CE
:1010B800B0010020B0F1006F0ED310B5094BD3F882
:1010C800E045094B03EA842303F10063013B98429E
:1010D80005D8FFF713FF10BD4FF0FF3070474FF0F2
:1010E800FF30F8E70070FF1F00FCFF03B1F1006F4D
:1010F8000ED310B5094BD3F8E045094B03EA842316
:1011080003F10063013B994205D8FFF785FE10BD46
:101118004FF0FF3070474FF0FF30F8E70070FF1FC7
:1011280000FCFF03B0F1006F0ED308B5094BD3F8EC
:10113800E025094B03EA822303F10063013B98424F
:1011480005D8FFF791FE08BD4FF0FF3070474FF00C
:10115800FF30F8E70070FF1F00FCFF032DE9F041A6
:1011680088B00024039404940594069407944FF0DF
:10117800B043DA6C42F00202DA64DA6C02F002027E
:101188000292029ADA6C42F00402DA64DA6C02F033
:1011980004020192019ADA6C42F00102DA64DB6C13
:1011A80003F001030093009B1A4E22464FF43A4184
:1011B800304604F065FA4FF40A4303930125049579
:1011C80005940223069303A9304604F009F94FF069
:1011D8000308CDF80C804FF404170497059503A96C
:1011E8004FF0904004F0FCF84FF4405303930495FB
:1011F8000594CDF8188003A9304604F0F1F840238F
:1012080003930497059503A9034804F0E9F808B087
:10121800BDE8F081000400480008004872B6FEE707
:1012280010B59AB04822002108A813F00BFA002440
:10123800019402940394049405940694079404F08A
:101248002DFA4FF0B042D2F8903023F01803C2F8CC
:10125800903002F58062136823F4C06343F400738E
:101268001360136803F4C0630093009B242308935E
:1012780081230B93012310931194B0231293139499
:1012880008A804F0A5FB70B94F230193002302932B
:101298000393049305930793022101A804F0CAFE5F
:1012A80018B91AB010BDFFF7B9FFFFF7B7FF08B5B7
:1012B80002F016FFFFF7B4FFFFF750FF00F0BEFC87
:1012C80000F0C2FCFCE7000000B58DB02C22002124
:1012D80001A813F0B7F91948194B03601F2383605D
:1012E80000230361436183614FF08042C26103625E
:1012F8004FF48073436205F0E7F9A8B90F4805F089
:1013080027FBA0B900220892029206924FF00053E0
:1013180007934FF480730B9301A9084805F03CFA32
:1013280040B90DB05DF804FBFFF778FFE6E7FFF77B
:1013380075FFE7E7FFF772FFF3E700BFB40100208E
:101348000028004010B590B004463822002102A8B9
:1013580013F078F922681A4B9A4201D010B010BDE8
:101368004FF4803302934FF480730F9302A804F074
:10137800C5FF08BB4FF0B043D3F8902042F40042B9
:10138800C3F890209A6D42F480629A659B6D03F4CD
:1013980080630193019B00221146022003F02CFC7C
:1013A800022003F039FC002211462A2003F024FC15
:1013B8002A2003F031FCD1E7FFF730FFDAE700BF5E
:1013C800002800407047704708B502F09FFE0120D2
:1013D800024BC3F8880004F0C5F908BD00040058A2
:1013E80008B502F09AFE08BD08B502F096FE00F0B6
:1013F800EDFB08BD08B502F089FE0121002004F0CC
:1014080055F908BD7047FEE7FEE7FEE7FEE7FEE791
:10141800704770477047704708B5024805F0C4FA2E
:1014280008BD00BFB401002008B5024803F0F8FD6C
:1014380008BD00BF0402002008B5024805F076FF89
:1014480008BD00BF6402002008B5024805F0B6F8E0
:1014580008BD00BFB401002008B5024805F05CFDD6
:1014680008BD00BFEC01002008B50548082303604B
:1014780005F0D0FA00B908BDFFF7D0FEFBE700BFC2
:10148800EC01002000B583B04FF0B0435A6E42F033
:1014980001025A665B6E03F001030193019B00226F
:1014A8001146322003F0A8FB322003F0B5FB03B04D
:1014B8005DF804FB0CB400B583B004AB53F8042BFF
:1014C800019312F0FBFF03B05DF804EB02B0704724
:1014D80030B585B004460D4602A812F04BFBBDF9A5
:1014E8000C300093029B054A10212046FFF7E2FFCB
:1014F8002046FEF73DFE288005B030BDD8480108DB
:1015080010B54FF0B042936823F40043936012F093
:1015180027FC01240C4B1C7000F0B4F811F078FF84
:101528000A4811F0A3FF0A4B4FF400421A61022047
:1015380011F0A2FFFFF7BCFB12F0B4F821462046D9
:1015480012F0D0F810BD00BFF8010020D91400082F
:101558000040005808B512F0DBF808BD08B5FFF7E1
:10156800AFFB40F6B83398420DD8B0F5E16F0CD315
:10157800A0F5E160C0EBC0104000054BA3FB0030B4
:10158800C0F3C71000E0FE2008BD0020FCE700BF44
:10159800B5814E1B08B5FFF7B5FB40F30F2008BD1A
:1015A80038B50446184BD3F88035B3F1FF3F13D054
:1015B800C3711A0A82711A0C42711B0E0371124B05
:1015C800D3F88425C270D3F884351A0A82701A0CAD
:1015D80042701B0E037038BD02F0A6FD054602F0EE
:1015E800AFFD054402F0A6FD2B0EE3712B0CA37191
:1015F8002B0A63712571030EE370030CA370030AB1
:1016080063702070E7E700BF0070FF1F38B50A4B12
:10161800D3F880350360B3F1FF3F00D038BD0446EE
:1016280002F082FD054602F085FD454002F088FD86
:1016380045402560F2E700BF0070FF1F08B5012193
:10164800022012F039F808BD08B50021022012F076
:1016580033F808BD0020704708B5044B1B780BB958
:10166800002008BD00F07CF8FBE700BFF80100206F
:1016780000B583B00190019800F058F903B05DF807
:1016880004FB0000F0B589B002F060FD02F066FDD1
:1016980002F06CFD002403940494059406940794C6
:1016A80001230493032306934FF0B043DA6C42F00E
:1016B8000202DA64DA6C02F002020292029ADA6C2E
:1016C80042F00202DA64DB6C03F002030193019B2F
:1016D8004FF4805703970C4D03A9284603F080FE6A
:1016E8004FF40056039603A9284603F079FE2246D4
:1016F8003946284603F0C4FF22463146284603F0FF
:10170800BFFF09B0F0BD00BF00040048064B986851
:1017180001E0054B9868044B9B688342F9D1C043AC
:10172800024B1860704700BF00280040FC010020F1
:10173800014B1868704700BFFC010020064B9868F1
:1017480001E0054B9868044B9B688342F9D1C0437C
:10175800024B1B68C01A704700280040FC0100209B
:10176800074B1B7853B1074B986801E0054B986805
:10177800044B9B688342F9D1C043704700207047EF
:1017880000020020002800400320704708B50146E9
:101798004FF47A7200238002890DFFF76BF808BDB9
:1017A800C20E43011B1A62F10002920042EA9372D0
:1017B8009B001B1842F10000C00040EA5370C3F3BD
:1017C800D51343EA8050704710B5074B0122DA65FC
:1017D800064C4FF48071204604F0B0FE4FF0FF3302
:1017E8002363002010BD00BF00280040B401002082
:1017F80008B502460221024805F0EBF808BD00BF13
:10180800B401002038B50F4B1B780BB1002038BD50
:101818000D4C4FF0FF352563FFF756FDFFF7D4FF5A
:101828004FF48071204604F089FE2563204605F0B8
:101838006FF80020FFF7DCFFFFF768FF014B01227C
:101848001A70E3E700020020B401002008B5024640
:101858000021024805F0BDF808BD00BFB401002012
:1018680008B502460121024805F0B3F808BD00BFDB
:10187800B401002010B58CB004462C22002101A828
:1018880012F0E0FEFFF7A0FF0C4B1B681C4400237E
:101898000893E443029406934FF0005307934FF4E0
:1018A80080730B93012201A9054804F075FF10B954
:1018B80000200CB010BDFFF7B1FCF9E7FC010020D7
:1018C800B401002008B50221014805F089F808BDD7
:1018D800B401002038B505460B4B9C6801E00A4B63
:1018E8009C68094A9268A242F9D1E443FFF7EAFFEB
:1018F8002346A40A44EA8054C3F30900FFF750FFC3
:101908002880204638BD00BF0028004008B50021C7
:10191800014805F065F808BDB401002008B50121AB
:10192800014805F05DF808BDB401002008B5FFF7CF
:101938002DFF0C4B996801E00A4B9968094B9B688D
:101948008B42F9D109E0074B9B68064A92689A4294
:10195800F9D1CB1A984203D900BF024B9B68F4E730
:1019680008BD00BF0028004008B512F01DFB08BDE7
:1019780008B5FFF7A7FF0130FFF73AFF08BD0000E1
:1019880008B51848184B03604FF4165343600023FA
:101998008360C36003610C22426183610362436216
:1019A80083624FF00053436606F078FB70B900215C
:1019B8000C4806F028FD60B900210A4806F048FDE9
:1019C80050B9084806F0FBFC48B908BDFFF726FCEB
:1019D800EDE7FFF723FCEFE7FFF720FCF1E7FFF760
:1019E8001DFCF2E7640200200080004030B597B08B
:1019F80004460021119112911391149115913822E6
:101A080003A812F01FFE22682E4B9A4201D017B08D
:101A180030BD202303934FF44063079303A804F0D9
:101A28006DFC002844D14FF0B043DA6D42F001025A
:101A3800DA65DA6D02F001020292029ADA6C42F07B
:101A48000102DA64DB6C03F001030193019B0C23B0
:101A5800119302231293002513950323149308234B
:101A6800159311A94FF0904003F0BAFC1648174B94
:101A780003601623436010238360C56080230361DD
:101A880045618561C561056203F03EF998B9102189
:101A98000D4803F039FB88B90B4BE3679C620022C1
:101AA8000221262003F0A8F8262003F0B5F8AEE7B7
:101AB800FFF7B4FBB7E7FFF7B1FBE8E7FFF7AEFBCB
:101AC800EAE700BF008000400402002058000240FE
:101AD80002680C4B9A4200D0704710B504464FF08C
:101AE800B042D36D23F00103D3650C214FF0904031
:101AF80003F048FDE06F03F077F9262003F090F833
:101B080010BD00BF0080004008B5074B1860FFF704
:101B18004FF9FFF735FF054AD2F8803043F080537C
:101B2800C2F88030002008BDFC02002000080058E0
:101B380008B54FF0B043DA6B42F00102DA63DA6BB2
:101B480022F00102DA630448FFF7C2FF0F2003F016
:101B580067F8002008BD00BF6402002008B50A46E7
:101B68000146024805F01EFB002008BD6402002063
:101B780010B582B0124B18604FF40013009302ABFB
:101B880013E906000F4806F0C2FB0E4B1B68DA6922
:101B980012F4803FF9D1DA6912F4800FFBD09A6809
:101BA80042F480029A60074C204606F0F1FB0122BD
:101BB8000549204606F044FB002002B010BD00BFD6
:101BC800F8020020640200200003002008B5044841
:101BD80003F09AF800B908BDFFF720FBFBE700BF48
:101BE8000402002008B50268044B9A4200D008BDE0
:101BF800034B1B6800209847F9E700BF00800040AE
:101C0800FC02002002680A4B9A4200D0704710B5C7
:101C18000446084B1B682BB1D0F8902012B901215B
:101C28000548984701220449204606F009FB10BDE3
:101C380000800040F80200200003002008B5FFF7EC
:101C48005FFC00F09FF808BD08B54FF0FF3011F0B9
:101C5800D7FD08BD7047704770470000014B1874E6
:101C6800704700BF00000020704718B108B500F0A9
:101C7800FFFA08BD704708B500F0E8FA08BD000093
:101C880008B500224FF40041014803F0F9FC08BDF3
:101C98000004004808B500224FF40071014803F021
:101CA800EFFC08BD0004004838B50C46054668B18D
:101CB80001224FF40041074803F0E2FC064812F005
:101CC80013F92146284600F035FA38BD0029EFD12E
:101CD800FBE700BF000400481C03002088B110B5D2
:101CE800044603781BB9204600F09CFA10BD012277
:101CF8004FF40071034803F0C3FC034812F0F4F8F2
:101D0800F1E77047000400483403002090B110B593
:101D1800044690F906301BB1204600F0F3F910BDD7
:101D2800054812F087F800224FF40061034803F0D9
:101D3800A7FCF1E7704700BF040300200004004837
:101D480008B500F0DFFA08BD08B50021022011F03F
:101D580017FD08BD08B50021012011F011FD08BDCF
:101D680008B500F0E5FA08BD08B500F0F3FA08BDBB
:101D780008B54FF40061024803F087FC08BD00BFB6
:101D880000040048F0B587B000240594484801F0E5
:101D98002DFC01250295032701970095454B224606
:101DA8002146022011F0C2FB02940523019302266A
:101DB8000096414B22462146304611F0B7FB02946B
:101DC800019700953D4B22462146304611F0AEFB67
:101DD80005A9204606F0F2FF059B1A0EC3F307215A
:101DE8000291C3F3074301930092354B22462146E3
:101DF800304611F09BFB05A9284606F0DFFF059B3E
:101E08001A0ED9B20391C3F307210291C3F3074312
:101E1800019300922B4B22462146304611F086FB57
:101E28000094294B22464FF4FA71284811F0A4FF78
:101E38000094274B22464FF4FA71264811F09CFF74
:101E48000094254B2A464FF4FA71244811F094FF68
:101E58002046FFF729F938BB214A0021022011F05A
:101E680097FD204A0021012011F092FD01F07AFC33
:101E78001D491E4806F056FF1D4806F02DFE17485E
:101E880012F032F81B4B00221146104611F04EFB9F
:101E98000028F7D1184B00221146104611F046FBD6
:101EA8000028F7D107B0F0BDFFF7B8F9D4E700BFB5
:101EB8005D1D0008E4480108084901082C4901088B
:101EC80050490108744901089D1C0008340300208A
:101ED800891C00081C030020791D00080403002049
:101EE800C1880008393600080001030118000020E5
:101EF8000000002098490108B8490108BFF34F8F36
:101F08000549CA6802F4E062044B1343CB60BFF38F
:101F18004F8F00BFFDE700BF00ED00E00400FA05A9
:101F280000B583B00090044B00221146104611F012
:101F3800FDFA03B05DF804FBE0490108F0B589B08B
:101F4800037842788178C478057946798779C079A9
:101F580007900697059604950394029101920093C1
:101F6800034B00221146104611F0E0FA09B0F0BD0B
:101F7800246401082DE9F04F93B003781093427858
:101F880011928378C278017944798579C679077A7C
:101F980090F809C090F80AE090F80B8090F80C903F
:101FA80090F80DA090F80EB0C07B0F90CDF838B027
:101FB800CDF834A0CDF83090CDF82C80CDF828E0BD
:101FC800CDF824C0089707960695059404910392C6
:101FD8000293119A0192109B0093044B0022114620
:101FE800104611F0A3FA13B0BDE8F08FE8490108D4
:101FF80000B585B0030EC0F30742C0F30721C0B295
:102008000390029101920093044B0022114610465E
:1020180011F08CFA05B05DF804FB00BF6464010898
:1020280000B583B00090044B00221146104611F011
:102038007DFA03B05DF804FB3C4A010800B58FB097
:102048000A4601F10F030D9301F10E030C9301F100
:102058000D030B9301F10C030A9301F10B03099390
:1020680001F10A03089301F10903079301F1080339
:102078000693CB1D05938B1D04934B1D03930B1DDA
:102088000293CB1C01938B1C00934B1C024912F04A
:1020980069F90FB05DF804FB444A010800B583B044
:1020A80001914B1C00938B1CCA1C034912F05AF96E
:1020B80003B05DF804FB00BF804A010808B50B4B6C
:1020C8005A684321117001225A7063221A7006F06F
:1020D8005BFB012805D100221146044806F066FB87
:1020E80008BD034811F000FFF5E700BF64000020B9
:1020F8004C03002008B50021082011F041FB08BD61
:102108000120704708B510B190F9063033B1074B7C
:1021180000221146104611F009FA08BD044B0022AE
:102128001146104611F002FAF7E700BFA44A010869
:10213800944A01082DE9F0418CB007460E4606ACDA
:10214800324D0FCD0FC495E8030084E8030047B370
:102158003D4697F800807B682BB37F781FB3F12F3B
:1021680000D9F2270197CDF80080294B00221146AB
:10217800104611F0DBF900240AE06B681B5D009340
:10218800244B00221146104611F0D0F90134E4B274
:10219800A742F2D8204B00221146104611F0C6F98A
:1021A80001E04FF0000816B1337C052B02D90CB0C2
:1021B800BDE8F08196F9082096F9091096F90A0009
:1021C800049003910292CDF804800CAA02EB8303D9
:1021D80053F8183C0093114B00221146104611F099
:1021E800A5F9737C33B90C4B00221146104611F047
:1021F8009DF9DCE7B37CF27C01920093084B002246
:102208001146104611F092F9EDE700BFE0470108CA
:10221800B84A0108C84A01083C4F0108D04A0108D9
:10222800FC4A010870B108B5027A012A00D008BD3D
:10223800437A002BFBD0044B00221146104611F0C4
:1022480075F9F4E7704700BF104B010800B583B07B
:10225800054B1B5C0093054B00221146104611F0FC
:1022680065F903B05DF804FB444B0108284B0108ED
:1022780000283FD02DE9F0418CB003464278022A6D
:102288000AD0032A2FD01C4B00221146104611F009
:102298004DF90CB0BDE8F081027CB0F9121090F94C
:1022A80014009C7DDD7D1E7E5F7E93F81AC093F836
:1022B8001BE093F81C80CDF82C80CDF828E0CDF8F1
:1022C80024C008970796069505945C680494DB6813
:1022D8000393029001910092084B00221146104688
:1022E80011F024F9D5E7064B00221146104611F0EB
:1022F8001DF9CEE7704700BF484B01085C4B010849
:10230800BC4B010808B5012806D0074B002211462E
:10231800104611F00BF908BD044B00221146104677
:1023280011F004F9F7E700BFEC4B0108D84B01089E
:1023380038B504460D464FF400610548FEF7F2FE35
:1023480000B138BD2A4621460148FEF7B3FEF8E73A
:1023580000F0030808B50A460149FEF7C7FE08BDA4
:1023680000F0030870B586B0012502950326019692
:102378000095234B00221146104611F0D7F800248F
:10238800029405230193022300931E4B2246214603
:10239800204611F0CBF80294019600951A4B22467C
:1023A8002146204611F0C2F805A9204606F006FD90
:1023B800059B1A0EC3F307210291C3F30743019348
:1023C8000092124B22462146204611F0AFF805A98B
:1023D800284606F0F3FC059B1A0ED9B20391C3F305
:1023E80007210291C3F3074301930092084B224649
:1023F8002146204611F09AF8204606B070BD00BF6D
:10240800E4480108084901082C4901085049010815
:102418007449010808B511F035F8FFF781FD00206F
:1024280008BD000000B583B001AA0F4911F09AFF5A
:10243800012809D1019803280ED8C0B211F01CF860
:10244800002003B05DF804FB084B0022114610463B
:1024580011F06CF80220F4E7054B002211461046F3
:1024680011F064F80220ECE7004C0108044C010864
:102478002C4C010800B593B007A811F07BFB079816
:10248800A0F11203079300F5E0500E30079009A958
:1024980011F0F4FB0E9B03F26C7305930D9B013353
:1024A80004930C9B0393099B02930A9B01930B9B38
:1024B8000093054B00221146104611F037F8002012
:1024C80013B05DF804FB00BF704C010808B5FFF7B6
:1024D80015FD000008B54FF400610448FEF722FE20
:1024E80008B1002008BDFFF709FD00BF00F0030890
:1024F80008B506F043FF10F1080F04D0B0F1FF3F14
:1025080009D0002008BD084B00221146104611F0E2
:102518000DF80020F6E7054B00221146104611F091
:1025280005F80120EEE700BF9C4C0108B44C0108F7
:1025380000B583B0684606F09AFC30B96846FFF7E4
:10254800FDFC002003B05DF804FB0220FAE7000060
:1025580000B589B00DF11F0305930DF11E03049317
:102568000DF11D03039307AB02930DF11B030193B8
:102578000DF11A0300930DF1190306AA074911F08A
:10258800F1FE082803D0022009B05DF804FB06A874
:1025980006F081FC0028F7D00120F5E76C4A010815
:1025A80000B585B06946012006F0ADFE18B10120DE
:1025B80005B05DF804FB6846FFF7DCFC0020F7E790
:1025C80000B585B06946FFF739FD102803D0022011
:1025D80005B05DF804FB6946012006F0ABFE002853
:1025E800F6D00120F4E700B585B06946002006F072
:1025F8008AFE18B1012005B05DF804FB6846FFF7B4
:10260800B9FC0020F7E700B585B06946FFF716FD6D
:10261800102803D0022005B05DF804FB69460020AD
:1026280006F088FE0028F6D00120F4E700B585B052
:102638006946082006F067FE18B1012005B05DF86C
:1026480004FB6846FFF796FC0020F7E700B585B065
:102658006946FFF7F3FC102803D0022005B05DF8A7
:1026680004FB6946082006F065FE0028F6D0012024
:10267800F4E700B585B06946092006F044FE18B1B4
:10268800012005B05DF804FB6846FFF773FC0020E5
:10269800F7E700B585B06946FFF7D0FC102803D0EE
:1026A800022005B05DF804FB6946092006F042FEE9
:1026B8000028F6D00120F4E700B583B001A806F0A1
:1026C8002FFC30B90198FFF793FC002003B05DF8A8
:1026D80004FB0220FAE700B583B001A9FFF7DEFC8E
:1026E800042803D0022003B05DF804FB019806F02B
:1026F8002CFC0028F7D00120F5E700B583B0684628
:1027080006F089FB30B96846FFF718FC002003B0D3
:102718005DF804FB0220FAE700B589B00DF11F034C
:1027280005930DF11E0304930DF11D03039307ABED
:1027380002930DF11B0301930DF11A0300930DF1A0
:10274800190306AA074911F00DFE082803D0022034
:1027580009B05DF804FB06A806F071FB0028F7D065
:102768000120F5E76C4A010800B583B001A806F01E
:10277800AAFB30B90198FFF753FC002003B05DF8BD
:1027880004FB0220FAE7000000B583B001AA09495A
:1027980011F0E8FD012808D101987F2807D806F034
:1027A800A7FB002003B05DF804FB0220FAE7022033
:1027B800F8E700BF004C010808B50378302B03D0B8
:1027C800312B07D0022004E00121084605F04AFF1A
:1027D800002008BD0121022005F044FF0020F8E791
:1027E80008B506F009FB00B908BD0220FCE70000A7
:1027F800F0B583B00546FDF7BBFC84B20023ADF805
:1028080000308DF8023001AA4649284611F0AAFD89
:1028180001280AD0444B00221146104610F086FECB
:10282800022023E00135013CA4B22A78A2F130034A
:10283800DBB2092B01D8012CF4D884B13A2A0ED185
:10284800631E9BB26A78302A12D0312A37D0374BB0
:1028580000221146104610F069FE022006E0344BB3
:1028680000221146104610F061FE022003B0F0BDB0
:10287800002633B3AF1C023CA4B214B3AB783A2B96
:102888001FD10137013CA4B20025F12D21D8012C1C
:102898001FD917F815308DF8003007EB45035B7822
:1028A8008DF80130234B5A682A442349684611F0B1
:1028B80059FD01282DD10135023CA4B2E5E70126D6
:1028C800D7E71E4B00221146104610F02FFE0220BB
:1028D800CCE704BB17484570019B037000223146C2
:1028E80005F064FF831D062B11D8DFE803F00C0EFA
:1028F8000616061004000020B8E705F045FF012879
:102908000DD00520B2E70820B0E70920AEE7012086
:10291800ACE70220AAE70220A8E70520A6E70320E3
:10292800A4E700BFCC4C0108D04C0108284D010891
:10293800F84C010864000020804D0108504D010842
:1029480000B583B00DF1070006F028FB38B99DF8F3
:102958000700FFF765FB002003B05DF804FB0220C9
:10296800FAE708B50078A0F13003012B01D902205D
:1029780008BD303818BF012006F01CFB0020F7E71F
:1029880000B583B00DF1070006F070F838B99DF96D
:102998000700FFF745FB002003B05DF804FB0220A9
:1029A800FAE7000000B583B00DF107020A4911F0FB
:1029B800D9FC012809D19DF90700C3B20F2B08D80B
:1029C80006F00EFB10B1012000E0022003B05DF814
:1029D80004FB0220FAE700BF884D010810B58EB04D
:1029E8000DF1100C134C0FCCACE80F000FCCACE879
:1029F8000F0094E803008CE803000DF10F0006F0C7
:102A08004FF898B99DF80F30092B11D80EAA02EB90
:102A1800830252F8282C01920093074B002211469A
:102A2800104610F083FD00200EB010BD0220FBE719
:102A38000220F9E7F8470108904D010800B583B076
:102A48000DF10702094911F08DFC012808D19DF804
:102A58000700092808D806F091FA10B1022000E012
:102A6800022003B05DF804FB0220FAE7884D010854
:102A780010B584B000F086FE002844D004460DF15D
:102A88000F0005F097FF00283FD1A368012B05D15F
:102A98001F4B1B7813B19DF80F406CB19DF80F3098
:102AA800413300931B4B00221146104610F03EFDA7
:102AB8000024204604B010BD0DF10E0006F020FCE5
:102AC80050B99DF80E30092B16D8DFE803F0070738
:102AD8001515070E150E0E0E0224EAE70E4B0022FE
:102AE8001146104610F022FDE3E70C4B0022114678
:102AF800104610F01BFDDCE7094B0022114610467A
:102B080010F014FDD5E70124D3E70224D1E700BF74
:102B180056040020B04D0108984D0108A04D010849
:102B2800A84D010810B5044600F02CFE20B3237808
:102B3800422B12D0432B1BD0412B1FD18368012B72
:102B480007D0002005F0DCFE10F1030F18D0C8B93B
:102B580010BD0D4B00221A70F3E78368012B01D0DA
:102B68000720F5E70120084B187005F0C9FEEBE7D0
:102B7800022005F0C5FEE7E70120E9E70220E7E7C4
:102B88000520E5E70120E3E75604002000B583B0FF
:102B98000DF1070006F040FA38B99DF80700FFF775
:102BA8003FFA002003B05DF804FB0220FAE708B5FD
:102BB8000078A0F13003012B01D9022008BD30387C
:102BC80018BF012006F034FA0020F7E700B583B0FB
:102BD80001A806F0FBFA30B90198FFF7A1F9002027
:102BE80003B05DF804FB0220FAE7000000B583B0EB
:102BF80001AA084911F0B6FB012803D0022003B04E
:102C08005DF804FB019806F055FB0028F7D0022078
:102C1800F5E700BFB84D010800B583B001A806F07C
:102C2800EAFA30B90198FFF77BF9002003B05DF8A4
:102C380004FB0220FAE7000000B583B001AA0849A6
:102C480011F090FB012803D0022003B05DF804FBCB
:102C5800019806F03FFB0028F7D00220F5E700BFF7
:102C6800B84D010800B583B001A806F085FA30B95F
:102C78000198FFF755F9002003B05DF804FB022026
:102C8800FAE7000000B583B001AA084911F06AFB11
:102C9800012803D0022003B05DF804FB019806F078
:102CA800E9FA0028F7D00220F5E700BFB84D01087F
:102CB80000B583B001A806F074FA30B90198FFF79F
:102CC8002FF9002003B05DF804FB0220FAE70000AA
:102CD80000B583B001AA084911F044FB012803D0CC
:102CE800022003B05DF804FB019806F0D3FA00282F
:102CF800F7D00220F5E700BFB84D010800B583B052
:102D0800684606F09FF99DF80400FFF789F900204E
:102D180003B05DF804FB000010B582B004466846B5
:102D280006F090F901AA0A49204611F01BFB012878
:102D380009D19DF804300F2B08D8684606F086FAAA
:102D480010B1022000E0022002B010BD0220FBE713
:102D5800884D010800B583B0684606F073F90098FD
:102D6800FFF75EF9002003B05DF804FB10B582B0F0
:102D78000446684606F066F96A460849204611F096
:102D8800F1FA012802D0022002B010BD684606F010
:102D98005DFA0028F8D00220F6E700BFB84D010818
:102DA80000B583B00DF1070006F064F938B99DF954
:102DB8000700FFF735F9002003B05DF804FB022097
:102DC800FAE7000000B583B00DF10702084911F0D9
:102DD800C9FA012803D0022003B05DF804FB9DF96D
:102DE800070006F01DFA0028F6D00220F4E700BF1D
:102DF800884D010800B583B00DF1070006F07AFA96
:102E080038B99DF80700FFF70BF9002003B05DF80B
:102E180004FB0220FAE7000000B583B00DF10702B9
:102E2800094911F09FFA012808D19DF807000728E1
:102E380008D806F062FA10B1022000E0022003B0C0
:102E48005DF804FB0220FAE7884D010808B500F098
:102E580001FD00B908BD0320FCE708B500F020FD1E
:102E680000B908BD0320FCE710B596B00DF10C0CB5
:102E78006D4C0FCCACE80F0094E807008CE8070015
:102E88000AA800F08DFD0B9B0093684B00221146A9
:102E9800104610F04BFB0C9B0093654B002211462B
:102EA800104610F043FB0A9B63B1032B0AD0012B99
:102EB80067D00E9B00935F4B00221146104610F01E
:102EC80035FB4DE00D9B00935B4B002211461046ED
:102ED80010F02CFB0E9B0093584B00221146104615
:102EE80010F024FB564B00221146104610F01EFB32
:102EF800109B0093534B00221146104610F016FB0E
:102F0800119B0093504B00221146104610F00EFB07
:102F18000A9B43BB4D4B00221146104610F006FB9E
:102F2800129B00934A4B00221146104610F0FEFAFD
:102F38000A9BFBB9139B0093464B0022114610468F
:102F480010F0F4FA444B00221146104610F0EEFA45
:102F5800159B0093414B00221146104610F0E6FAEB
:102F6800002016B010BD3E4B00221146104610F04E
:102F7800DDFAD5E73B4B00221146104610F0D6FA91
:102F8800E0E70D9B16AA02EB830252F84C2C019243
:102F98000093354B00221146104610F0C7FA0E9BDD
:102FA8000093324B00221146104610F0BFFA0F9BD7
:102FB8001A1D019200932E4B00221146104610F064
:102FC800B5FA109B00931F4B00221146104610F0D3
:102FD800ADFA119B00931C4B00221146104610F0CD
:102FE800A5FA244B00221146104610F09FFA129BB6
:102FF8000093174B00221146104610F097FA1E4B0B
:1030080000221146104610F091FA149B00931B4BB6
:1030180000221146104610F089FA194B0022114679
:10302800104610F083FA9BE720480108BC4D0108C0
:10303800D04D010804500108E44D0108FC4D010879
:10304800184E0108384E0108504E01086C4E010810
:10305800944E0108B04E0108FC4E01081C4F0108AF
:10306800804E0108CC4E0108404F01085C4F010812
:103078006C4F0108844F01089C4F0108C84F010894
:10308800E44F010810B5A6B00446302200211AA862
:1030980011F0D8FA0EAB0A930FAB099310AB089353
:1030A80011AB079312AB069313AB059314AB0493C0
:1030B80015AB03930DAB029316AB019317AB0093BB
:1030C80018AB19AA6949204611F04CF90D2802D00D
:1030D800022026B010BD1AA800F062FC129B032B38
:1030E80000F2AA80DFE803F0021E212400231A93CD
:1030F800199BB3F57A7F1ED25D4A02FB03F31B933B
:10310800189B03F109021F2A00F298801C931A9B4E
:103118009BB9179AB2F5965F0FD356498A420CD8D5
:103128001D9210E001231A93E2E702231A93DFE7C6
:1031380003231A93DCE71B93E2E7032B0DD0012B43
:1031480014D0022B7CD1B3B9169AB2F5167F12D3DC
:1031580049498A420FD81E9218E0179AB2F5965F2D
:10316800EDD344498A42EAD81D92ECE7179A062A19
:10317800E7D81D92E7E7032B10D0012B16D0022BBE
:1031880060D1169AB2F57A7F5ED81E92012B17D0BD
:1031980013D99A1E012A19D902209AE7169A632A86
:1031A800EBD935498A42E8D81E92EFE7169A042AE5
:1031B800E5D90C2AE3D81E92E8E73BB1022088E75C
:1031C800159A511F032941D8043A1F92149A012ACB
:1031D8003ED82092139A012A17D9119A511EFE2916
:1031E80038D822925A1E022A07D9ABBB1099A1F5EA
:1031F80016742248844231D82391012B0AD006D96B
:10320800991E01290AD9022063E72192E5E72BB12B
:1032180002205EE70F99022922D82491012A06D9B3
:103228000BB1032B1ED10E9B042B1DD825931AA876
:1032380000F0ACFB00204CE702204AE7022048E7F8
:10324800022046E7022044E7022042E7022040E746
:1032580002203EE702203CE702203AE7022038E756
:10326800022036E7022034E7022032E72050010826
:1032780040420F0038200700E0930400E80A0300EA
:1032880000B583B001AA0A4911F06CF8012805D1EC
:10329800019800F09DFB40B1012006E0054B00229B
:1032A8001146104610F042F9022003B05DF804FB05
:1032B800004C01084850010800B583B001AA0A492A
:1032C80011F050F8012805D1019800F0D1FC40B167
:1032D800012006E0054B00221146104610F026F9A1
:1032E800022003B05DF804FB004C0108705001088F
:1032F80030B595B010AB019311AB009312AB13AA84
:103308001F4911F02FF8042834D1139BB3F57A7FA5
:1033180003D21C4A02FB03F31393129BB3F57A7F83
:1033280003D2184A02FB03F31293139C002500E012
:103338000135109B9D421BD204A800F031FB059477
:1033480004A800F023FB109B0293019500940E4BF8
:1033580001220021084610F0E9F8012000F038FBAE
:1033680058B9119B1C44129BA342E1D2139CDFE77E
:10337800002000E0022015B030BD0320FBE700BFAD
:103388009C50010840420F00A850010808B500F001
:1033980011FB044B00221146104610F0C7F800201C
:1033A80008BD00BFC450010830B583B00378302B86
:1033B80003D0312B05D002201AE00121084605F080
:1033C80051F90121022005F04DF90A4D002400941D
:1033D800094B22464FF4FA51284610F0CDFC2846F6
:1033E80010F082FD054A2146082010F0D1FA204647
:1033F80003B030BD4C030020FD200008C5200008A4
:1034080008B5FDF75DFCFEF70BFE002008BD10B502
:1034180000210C4600E00131435C1BB1082BFAD1B6
:103428000134F8E74FF0000C17E00133C25C082ABA
:10343800FBD1002B17DD013B03E0C2189278C25480
:1034480001338A1E9A42F8D803F1010E0021C154B3
:1034580000F80E100CF1010C1146A44501D200230E
:10346800E4E7002010BD4FF0FF30FBE708B50F4A36
:1034780011684B1C1360092B0DD00D490A68531CA9
:103488000B6000780B498854082B0AD00A4B1B683C
:1034980003B1984708BD094B01221A60034B196014
:1034A800F4E7034B00221A60F0E700BF6004002035
:1034B800680400208C060020580400205C040020CA
:1034C80010B504460A2800D90A24054B53F82430BD
:1034D80000221146104610F029F80028F5D110BD39
:1034E800C869010870B50278412A03D00120FFF7A6
:1034F800E7FF70BD03464278542A01D00120F6E761
:1035080080780028F3D03F2812D09C1C0025262D57
:1035180064D8344B05EB450103EBC10256683246CB
:1035280053F83110204611F095F808B30135EEE74D
:103538002D4B0022114610460FF0F8FF0028F7D156
:1035480000240DE004EB4402264B03EBC2035B6945
:103558000022114610460FF0E9FF0028F2D101348D
:10356800262CEFD90FF06EFF0128FBD10020BEE713
:10357800A019A35D3D2B0BD03F2B21D0002B2FD1C1
:1035880005EB4505174B03EBC5031B699847AEE7E9
:1035980043783F2B08D005EB4505124B03EBC503D9
:1035A800DB6801309847A2E78378002BF3D105EB5D
:1035B80045050C4B03EBC5039B680130984796E71C
:1035C80005EB4502074B03EBC2035B69002211467A
:1035D80010460FF0ABFF0028F2D188E7012086E7FC
:1035E800012084E7206601084051010810B504460F
:1035F80008480FF033FF0CB1074B1C600023074A43
:103608001360074A1360074A1360074A1360074AA2
:10361800136010BD753400085804002068040020A9
:1036280064040020600400206C0400205C04002076
:1036380070B5454B1B68012B27D10420FFF740FFCD
:10364800EFF3108272B6414B1968414B19600023A1
:1036580040490B603C490B6082F310883E4A136076
:1036680013E001333A4A1360082B36D0EFF3108188
:1036780072B6384A1368013B136081F3108806203C
:10368800FFF71EFF344B00221A60324B1B68002BD9
:1036980059D02F4B1B68314AD25C012AE1D00D2A40
:1036A8001FD00A2A1DD02C49096840F21B208142EC
:1036B8003ED00133264803604C1C27480460284844
:1036C8004254082B3BD0EFF3108172B6214A13689D
:1036D800013B136081F31088D7E7134600221A6074
:1036E800C4E701331A4A1360082B1DD0EFF3108189
:1036F80072B6184A1368013B136081F31088164BA1
:103708001B68002BC1D0164C0025E554EFF310863A
:1037180072B62046FFF77BFE86F310882046FFF737
:10372800E1FE0D4B1D60B0E7134600221A60DDE78D
:10373800094B00221A600420FFF7C2FEA5E7044BDC
:1037480000221A60BFE770BD5C04002068040020F6
:1037580064040020600400206C0400208C06002013
:1037680070040020064B00221A605A609A60DA60E2
:1037780020225A604FF490725A6001221A607047F2
:1037880094060020004870479406002038B5044687
:103798000D460A4600210FF0EAFF002202200CE045
:1037A800C91014F801C003F0010302F0070E03FA70
:1037B8000EF34CEA030363540132B2EBC50F0DDA82
:1037C800030983EA102303F0010343EA4003C3F328
:1037D80008001146002AE3DAD11DE1E7002038BDD0
:1037E80008B50120024B18600FF0DEFF08BD00BFCE
:1037F800D407002008B505490A80054A137001203E
:10380800044B18600FF0D0FF08BD00BFC2070020AE
:10381800C0070020CC07002008B50120024B186023
:103828000FF0C2FF08BD00BFD007002008B5012077
:10383800024B18600FF0B8FF08BD00BFC807002092
:1038480008B50120024B18600FF0AEFF08BD00BF9D
:10385800C40700200E4B1B7813F0010F15D110B5CB
:1038680043F001030A4A13700A4B0122002108465B
:103878000FF05CFE084BDC6B084B4FF6FF7293F9B8
:1038880008105868A047002010BD4FF0FF3070475F
:10389800D807002080610108286F01086C0000200B
:1038A80030B593B0334B1B7813F002055FD143F06A
:1038B8000203304A1370304B0122002108460FF0F2
:1038C80035FE2E4BDB682E4C606898472D4B0293D3
:1038D80000230393E36A0BB10833DDB28DF830504F
:1038E800274CE368059323690693032307938DF810
:1038F8002E3002AB089340F2FF13ADF82C300122B2
:103908008DF83220F2238DF8333041F22103ADF8DF
:1039180028308DF83420194B5D6F002304A9184610
:10392800A847A369EBB9154B5B6B6FF07F409847CD
:10393800124CE36D9847FDF79BFE236C00209847D7
:103948000090114B0122002108460FF0EFFDE36AB9
:103958009847084A137823F002031370002013B025
:1039680030BD064B5B6E6FF07F409847E0E74FF045
:10397800FF30F4E7D807002090610108286F01089C
:103988006C000020C194C100A061010808B501467F
:10399800302202480FF0E0FE002008BD6C00002035
:1039A80008B5302202490FF0D7FE002008BD00BF3D
:1039B8006C00002010B50024034B1C70034BDB6A1D
:1039C8009847204610BD00BFD8070020286F01087F
:1039D8002DE9F0418CB0934B1B7813F0040740F0AD
:1039E8001B81064643F004038E4A13708E4B012256
:1039F800002108460FF09AFD8C488D4B03608D4BD3
:103A080083608D4B43608D4BC3608D4B03618D4B41
:103A18001B6898478C4B93F820108C48FFF7B6FE2C
:103A2800012456E08A4B039300230493864BDB6AF8
:103A3800002B6DD00733DBB28DF82730824A536AEA
:103A48000B9313690593032306938DF8263003AB74
:103A5800079340F2FF13ADF8243001238DF8283086
:103A6800F2238DF8293041F22103ADF820300020EF
:103A78008DF82A00734B9D6F40F6B83392F90820F1
:103A880005A9A8476F4DAB6A6F4A92F820106F4896
:103A9800984701200FF050FFEB6A98476D4B1B6861
:103AA800012B00F09B806C4B1B68012B00F09D8064
:103AB8006A4B1B68012B00F09F804FF4FA70FDF7EA
:103AC800D7FD0023634A1360634A1360634A136097
:103AD8000134B44200F3978001960094604B0122B0
:103AE800002108460FF022FD564BDB68564D6868EA
:103AF80098472B68032B00F2928001A252F823F01A
:103B08002D3A00087D3B0008CB3B00081D3B000810
:103B18003B4691E74E4B0393002304934A4BDB6AE1
:103B280033B30733DBB28DF82730474A136905935F
:103B3800032006908DF8260003AB079340F2FF138D
:103B4800ADF8243001238DF82830F2238DF8293080
:103B580041F22103ADF8203000238DF82A30394B8B
:103B68009D6F40F6B83392F9082005A9A84789E760
:103B78003B46D8E7344A137B8DF81530137C8DF813
:103B88001430137D8DF8163092F828308DF81730E0
:103B98000823ADF818304FF000088DF81A8001207E
:103BA8008DF81B008DF81C80264D40F6B83392F92D
:103BB800082005A9D5F878C0E047AB6D404698477E
:103BC80060E7214A136905931E4B9D6F40F6B83391
:103BD80092F9082005A90220A84753E7214B0122A2
:103BE800002108460FF0A2FC5DE71F4B01220021CF
:103BF80008460FF09BFC5BE71C4B0122002108469E
:103C08000FF094FC59E7074A137823F00403137064
:103C180000200CB0BDE8F0814FF0FF30F9E74FF01D
:103C2800FF30F6E7D8070020BC610108A407002090
:103C3800E9370008FD370008213800083538000842
:103C480049380008286F01086C000020A4060020ED
:103C5800C194C100D4070020D0070020C407002069
:103C6800C8610108D8610108E4610108F46101082C
:103C78002DE9F04794B006463822002106A810F036
:103C8800E1FC934B1B7813F0080840F01781002ED5
:103C980040F3178143F008038D4A13708D488E4B0B
:103CA80003608E4B83608E4B43608E4BC3608E4B9C
:103CB80003618E4B1B68984700252F46012484E03A
:103CC80043469BE0012B40F0FF80894B1A7B8DF81F
:103CD80045201A7C8DF844201A7D8DF8462093F8EB
:103CE80028308DF847300823ADF848304FF00009E8
:103CF8008DF84A9001208DF84C008DF84D90DFF832
:103D0800ECA11E23024606A9DAF874C0E047DAF8E7
:103D18005830484698479CE0744B5B6E41F28830B7
:103D28009847A0E0734BB3F800900FFA89F9724BEB
:103D380093F800A04FFA8AFA704B01220021084636
:103D48000FF0F4FB6A4B1B6853B9CDF804A0CDF80B
:103D580000906B4B0122002108460FF0E7FB8DE035
:103D6800CDF804A0CDF80090664B0122002108464A
:103D78000FF0DCFB82E0644B0122002108460FF0C3
:103D8800D5FB80E0614B0122002108460FF0CEFBF5
:103D98007EE001355E4B1B68012B00F0848000201B
:103DA8005B4B18605B4B18605B4B1860642305FB2A
:103DB80003F37A19B3FBF2F3029301960094574B7D
:103DC800012201460FF0B2FB0134B4426DDC474BCF
:103DD800DB68DFF81C91D9F804009847D9F800305F
:103DE800002B7FF46FAF4E4B049300230593D9F853
:103DF8002C30002B3FF464AF0833DBB28DF8383039
:103E08003B4BDA6807921B690893032309938DF8E3
:103E1800363004AB0A9304238DF8373040F2FF1391
:103E2800ADF8343001228DF83A20F2238DF83B307A
:103E380041F22103ADF8303000208DF83C00FF231B
:103E48000B938DF83900294BD3F87490034606A9D3
:103E5800C847274B9B69002B7FF45EAF234B5B6BF6
:103E680041F28830984701200FF066FD1F4BDB6A4E
:103E78009847274B1B68012B3FF454AF254B1B6811
:103E8800012B3FF478AF244B1B68012B3FF47AAF2A
:103E9800204B1B68012B3FF47CAF1F4B1B68012B89
:103EA8007FF478AF75E7013779E7094A137823F08B
:103EB80008031370002014B0BDE8F0874FF0FF30FE
:103EC800F9E74FF0FF30F6E74FF0FF30F3E700BFB8
:103ED800D8070020A4070020E9370008FD370008AC
:103EE800213800083538000849380008286F0108CB
:103EF8006C000020C2070020C007002000620108F3
:103F08000C6201082C62010850620108F461010882
:103F1800CC070020C8070020C40700206062010801
:103F2800C194C10008B500F03FF808BD08B500F01D
:103F38007DF808BD08B500F0C7F808BD08B500F061
:103F4800C5F808BD08B500F0C3F808BD08B500F00D
:103F5800C1F808BD0D48854600F0C1F80C480D4968
:103F68000D4A002302E0D458C4500433C4188C42CC
:103F7800F9D30A4A0A4C002301E013600432A24232
:103F8800FBD310F079FBFDF792F9FEE700800020E3
:103F9800000000203001002090700108300100204E
:103FA800C81F0020FEE700002DE9F04186B000247C
:103FB800019402940394049405944FF0B043DA6C8E
:103FC80042F00402DA64DB6C03F004030093009B04
:103FD800102701970123029303230493124D01A98B
:103FE800284601F0FDF94FF02008CDF8048001A91A
:103FF800284601F0F5F90826019601A9284601F09E
:10400800EFF922464146284601F03AFB2246394656
:10401800284601F035FB22463146284601F030FBA0
:10402800204606B0BDE8F0810008004810B5032816
:1040380013D8DFE800F002142536224C00220821AC
:10404800204601F01DFB00221021204601F018FB3C
:1040580000222021204601F013FB002010BD194C3E
:1040680001220821204601F00BFB012210212046E5
:1040780001F006FB00222021204601F001FBECE7BD
:10408800104C01220821204601F0FAFA01221021E1
:10409800204601F0F5FA01222021204601F0F0FA2D
:1040A800DBE7084C01220821204601F0E9FA00224A
:1040B8001021204601F0E4FA01222021204601F0D7
:1040C800DFFACAE70008004800207047012070475F
:1040D8000120704708B90F207047162070477047B5
:1040E80010B5032000F076FD01F062FC064B186065
:1040F8000F20FDF7AFFA10B10124204610BD044689
:10410800FDF780F9F9E700BF9C0000204FF0E0229E
:10411800136923F00203136170474FF0E02213691B
:1041280043F0020313617047014BD3F890057047C1
:104138000070FF1F014BD3F8940570470070FF1FF4
:10414800014BD3F8980570470070FF1F024A536867
:1041580023F0010353607047002004E0024A5368CB
:1041680023F0020353607047002004E0024A5368BA
:1041780023F0040353607047002004E030B583B097
:1041880000230193002800F006810446836DBBB12B
:104198002268936813F0805F1FD1936823F010435F
:1041A80023F0170343F0805393607C4B1B689B09F3
:1041B8007B4AA2FB03239B0901335B00019309E0BF
:1041C800FCF71AFD0023E36584F85430E0E7019B0F
:1041D800013B0193019B002BF9D12268936813F0EE
:1041E800805F40F09A80A36D43F01003A365E36DF0
:1041F80043F00103E3650120936813F0040300D042
:104208000123A16D11F0100F40F0BE80002B40F08B
:10421800BB80A36D23F4817343F00203A365936805
:1042280013F0010F4FD1A368217E43EA8133617EE9
:1042380043EAC133A57E43EA4533216B09B14FF404
:1042480080510B43E1680B432169002967DB4FF478
:1042580000110B4394F82C1043EA410394F8201002
:1042680001295FD0616A21B101F4E071A56A29438F
:104278000B43D16821F4FE3121F4FF711943D16059
:10428800636803F04043E26C1A4394F83C10012938
:1042980055D021680D69434B2B4013430B6163686C
:1042A800B3F1404F0FD0B3F1804F0CD0B3F1004FB2
:1042B80009D03D49D1F8082722F4701203F470138D
:1042C8001343C1F808372168636B4A6922F0070273
:1042D80013434B612268A16B536923F0700343EACF
:1042E800011353612369002B33D12268936A63F069
:1042F8000F03936223685B6903F00703626B9A42BA
:1043080039D0A36D23F0120343F01003A365E36DC6
:1043180043F00103E36501203BE000206CE721F056
:10432800004196E715B943F480339BE7A16D41F04E
:104338002001A165E16D41F00101E16592E7216C81
:104348000B43616C0B43A16C0B431A4342F001020F
:104358009FE7B3F5001FCDD121688B6AE369013B64
:104368009B0003F01C036FF00F0202FA03F3226EA6
:1043780013438B62BEE70023E365A36D23F00303B9
:1043880043F00103A36504E0A36D43F01003A365A4
:10439800012003B030BD0120FBE700BF9C000020D6
:1043A800632D3E0502FCFF1F00200140F8B50446BE
:1043B8000D464669082E05D00368DB6813F0010F27
:1043C8001ED10426FDF748F9074623681A683242C9
:1043D8001CD1B5F1FF3FF8D0FDF73EF9C31BAB4246
:1043E80001D8002DF1D123681B683342EDD1A36DAC
:1043F80043F00403A365002384F85430032028E025
:10440800836D43F020038365012022E0A26D42F40E
:104418000072A265DA6812F4406F15D1A27E9AB9CB
:104428001A6812F0080F0FD09A6812F0040F11D111
:104438005A6822F00C025A60A36D23F4807323F0AB
:10444800010343F00103A365207E60B923680C22B1
:104458001A60F8BDA36D43F02003A365E36D43F034
:104468000103E365F0E70020F3E70368186C704781
:1044780070B483B000220192046990F85420012A94
:1044880000F003810346012280F8542002689068F6
:1044980010F0040F0AD09A6D42F020029A650120AC
:1044A800002283F8542003B070BC70474868022883
:1044B80000F09C80B4F1004F27D0754DAC4224D059
:1044C8001C6E00F01F000F25854024EA05050C68C6
:1044D800C4F31106002E31D1C4F3846484402C4304
:1044E8001C664C68A0080130DD69A84213D80D6825
:1044F800906A04F01F040F26A64020EA0600C5F3C0
:104508008365A5402843906205E00C68906AC4F36F
:104518001104204390621C680D688A68606920EA6B
:10452800052002EA052222F07C4222F0FF02024323
:1045380062610A68002A09DB0020B1E794FAA4F452
:1045480014B1B4FA84F4C9E72024C7E75149D1F873
:10455800080700F0E071504CA24207D04F4CA2422D
:1045680026D04F4CA24232D0002099E710F4000F19
:10457800F4D141F400014748D0F8082722F0E0724E
:104588001143C0F80817474A126892094649A1FB27
:1045980002129209013202EB42029200019202E0F9
:1045A800019A013A0192019A002AF9D1002077E78D
:1045B80010F0807FD5D141F080713648D0F80827B7
:1045C80022F0E0721143C0F80817002068E710F4E1
:1045D800800F58D141F480022E48D0F8081721F0F6
:1045E800E0710A43C0F80827002059E7B4F1004FEA
:1045F80002D02748844206D10C68906AC4F311049B
:1046080020EA040090620A68002A01DB002047E7DC
:104618002049D1F808172048824207D01F48824213
:1046280013D01F4882421FD0002039E701F0A07143
:1046380000F1104000F58830D0F8082722F0E07229
:104648001143C0F8081700202AE701F4400200F1DE
:10465800084000F56040D0F8081721F0E0710A43DF
:10466800C0F8082700201BE701F0C07200F10C40D9
:1046780000F58030D0F8081721F0E0710A43C0F83F
:10468800082700200CE700200AE702200BE700BFFC
:104698000400008000200140001000B0004000B875
:1046A800002000B49C000020632D3E0538B5036847
:1046B8009A6812F0040F2AD004469A6812F0020F82
:1046C80007D19A6822F0004222F0170242F0100245
:1046D8009A60FCF7C1FF054623689B6813F0040F36
:1046E80013D0FCF7B9FF431B022BF5D923689B684D
:1046F80013F0040FF0D0A36D43F01003A365E36D2E
:1047080043F00103E365012002E0002000E00020FF
:1047180038BD000030B583B00023019303689A6860
:1047280012F0010F5BD1044699682E4A114217D145
:104738009A6822F0004222F0170242F001029A60C1
:10474800294BD3F8083713F4000F19D0274B1B68EF
:104758009B09274AA2FB03239B09013301930CE021
:10476800836D43F010038365C36D43F00103C36594
:10477800012035E0019B013B0193019B002BF9D1FE
:10478800637E012B01D100202AE0FCF765FF054676
:1047980023681A6812F0010F1FD19A6812F0010FEE
:1047A80007D19A6822F0004222F0170242F0010273
:1047B8009A60FCF751FF401B0228E9D923681B685F
:1047C80013F0010FE4D1A36D43F01003A365E36D6B
:1047D80043F00103E365012002E0002000E000202F
:1047E80003B030BD17000080002001409C0000206D
:1047F800632D3E0503689B6813F0040F28D110B59C
:10480800044690F85430012B24D0012380F854300A
:10481800FFF780FFC0B9A36D23F4706323F0010391
:1048280043F48073A3650023E36522681C211160AB
:1048380084F854302268936823F0004323F0170368
:1048480043F00403936010BD002384F85430FAE762
:10485800022070470220F6E738B5044602689368DC
:1048680013F0020300D00123916811F0010F39D031
:10487800002B39D1936803F00503012B09D0A36DF0
:1048880043F01003A365E36D43F00103E3650120E2
:1048980029E0936823F0004323F0170343F0020351
:1048A8009360236803221A60FCF7D6FE0546236846
:1048B8009B6813F0010F13D0FCF7CEFE401B0228B3
:1048C800F5D923689B6813F0010FF0D0A36D43F06E
:1048D8001003A365E36D43F00103E365012002E0E3
:1048E800002000E0002038BD0020FCE770B500285B
:1048F80056D00446836D43F002038365FFF7D6FE66
:10490800064600283DD02268536823F4677323F0D5
:1049180003035360236840F29F321A602268D1680B
:10492800204B0B40D3602268136923F04043136186
:104938002268536923F0070353612268136A03F05E
:10494800F02313622268536A03F0F023536222684B
:10495800D36A03F0F023D36223689A6A00259D6224
:10496800114AD2F8083723F0FE73C2F808372046F8
:10497800FCF758F92566E565A56584F85450304676
:1049880070BD2046FFF768FF064608B90123A365F6
:104998002268936823F0104323F017039360B2E76B
:1049A8000126ECE700023E830020014090F85430D5
:1049B800012B19D010B50446012380F85430FFF7B5
:1049C80075FE18B1002384F8543010BD2046FFF757
:1049D80043FF0028F6D1A36D23F4807323F001036D
:1049E80043F00103A365EDE702207047F0B583B0FB
:1049F8000023019390F85430012B00F09480044672
:104A0800012380F85430FFF727FF054623689A688A
:104A180012F0010209D0A36D43F01003A36500232F
:104A280084F85430284603B0F0BDA16D21F481719B
:104A380041F00201A165DE6826F4FF4626F07C06F7
:104A48003604360CD96821F4004121F00301D960FD
:104A5800104605E0D3F8B43003F07F031844013260
:104A6800072A1ED821688B6823F0004323F0170318
:104A780043F000438B60236899680029EADA019BB8
:104A880001330193019BB3F52E3FF4D3A36D23F0BB
:104A9800120343F01003A365002384F85430012562
:104AA800C0E7B0FBF2F02268936823F0004323F0DC
:104AB800170343F0010393602268D2F8B43023F05F
:104AC8007F031843C2F8B4002268936823F00043B8
:104AD80023F0170343F002039360FCF7BDFD07467C
:104AE80023689A6812F0010F09D1DA683243DA6054
:104AF800A36D23F0030343F00103A3658FE7FCF7DD
:104B0800ABFDC31B022BEBD923689B6813F0010F85
:104B1800E6D0A36D43F01003A365E36D43F00103F2
:104B2800E36501257EE702257CE70000002807DB16
:104B380000F01F02400901239340024A42F8203046
:104B4800704700BF00E100E000280CDB00F01F0206
:104B58004009012393402030034A42F82030BFF334
:104B68004F8FBFF36F8F704700E100E0002808DB2C
:104B78000901C9B200F1604000F5614080F80013F6
:104B8800704700F00F000901C9B2014B1954704772
:104B980014ED00E000B500F00700C0F1070CBCF10F
:104BA800040F28BF4FF0040C031D062B0FD9C31E9A
:104BB8004FF0FF3E0EFA0CF021EA000199400EFA80
:104BC80003FE22EA0E0241EA02005DF804FB00231C
:104BD800EEE70000074AD36823F4E0631B041B0CCC
:104BE800000200F4E060034343F0BF6343F4003382
:104BF800D360704700ED00E010B50446054BD86857
:104C0800C0F30220FFF7C6FF01462046FFF7AEFFBC
:104C180010BD00BF00ED00E008B5FFF787FF08BD35
:104C280008B5FFF791FF08BD10B4C46CD0F850C0A8
:104C3800C4F804C0446D24B1846DD0F85CC0C4F8D5
:104C480004C0446C04F01C0C012404FA0CF4D0F8E1
:104C580040C0CCF80440046863608368102B05D01A
:104C6800036899600368DA6010BC704703689A604B
:104C78000368D960F8E700000368144A934216D81D
:104C8800426C22F0030202F1804202F50232826491
:104C9800DBB2083B0E4AA2FB03231B090D4AC26480
:104CA80003F01F03012202FA03F303657047426C05
:104CB80022F00301084A0A448264DBB2083B044A32
:104CC800A2FB03231B090733E8E700BF07040240E0
:104CD800CDCCCCCC800802401C080240436803F0CD
:104CE8007F03074A1A4492004265064A8265013BDF
:104CF80003F00303012202FA03F3C365704700BF00
:104D08003F8200104009024000285ED010B50446DA
:104D180003682F4A934240D82E4A1A442E49A1FBD1
:104D280002121209920042642C4A0264022284F898
:104D380025201A686FF30E121A6021680A68A368A2
:104D4800E06803432069034360690343A0690343A0
:104D5800E0690343206A034313430B602046FFF7CF
:104D68008BFFA368B3F5804F22D06368A26C03F071
:104D78007F031360E36C226D5A606368013B032B69
:104D880019D900236365A365E3650020E063012367
:104D980084F8253084F8240010BD114A1A440E49BD
:104DA800A1FB02121209920042640E4A0264BDE796
:104DB80000236360D9E72046FFF790FF636D002268
:104DC8001A60A36DE26D5A60DFE70120704700BFEB
:104DD80007040240F8FFFDBFCDCCCCCC0000024058
:104DE800F8FBFDBF0004024000284BD038B504464C
:104DF8000268136823F0010313600268224B9A4289
:104E08002CD8224B13442249A1FB03131B099B00F6
:104E18004364204B036400251560636C03F01C0297
:104E2800216C012393404B602046FFF725FFA36CBC
:104E38001D60E36C226D5A606368013B032B18D92F
:104E480000206065A065E065E06220636063A063A0
:104E5800E06384F8250084F8240038BD0E4B134421
:104E68000B49A1FB03131B099B0043640B4B036411
:104E7800D1E72046FFF732FF636D1D60A36DE26D39
:104E88005A60DDE70120704707040240F8FFFDBFC4
:104E9800CDCCCCCC00000240F8FBFDBF00040240A2
:104EA80038B5044690F82400012843D0012084F83E
:104EB800240094F82500C0B2012806D08023E363BB
:104EC800002384F82430012038BD022084F825000E
:104ED8000020E0632568286820F00100286020464B
:104EE800FFF7A2FE236BD3B12268136843F00E03C9
:104EF8001360A36C1A6812F4803F03D01A6842F456
:104F080080721A60636D1BB11A6842F480721A606D
:104F18002268136843F0010313600020D4E7226875
:104F2800136823F0040313602268136843F00A032C
:104F38001360DEE70220C7E70346002834D090F864
:104F48002520D2B2022A06D00422C263002280F8A9
:104F580024200120704701680A6822F00E020A60C6
:104F6800816C0A6822F480720A6001680A6822F07B
:104F780001020A60426C02F01C01006C01228A40A6
:104F88004260DA6C196D51605A6D32B1116821F4C2
:104F9800807111609A6DD96D5160012283F82520C6
:104FA800002083F8240070470120704708B590F866
:104FB8002530DBB2022B03D00423C363012008BDD4
:104FC8000268136823F00E0313600268136823F065
:104FD80001031360826C136823F480731360436CBD
:104FE80003F01C02016C012393404B60C36C026DFB
:104FF8005A60436D33B11A6822F480721A60836D67
:10500800C26D5A60012380F82530002380F82430CF
:10501800836B13B198470020D1E70020CFE7000049
:1050280038B5036C196804682568436C03F01C03E1
:1050380004229A400A4215D015F0040F12D02368B2
:1050480013F0200F03D1236823F004032360436C7B
:1050580003F01C02016C042393404B60036B03B103
:10506800984738BD02229A400A4228D015F0020F0C
:1050780025D0236813F0200F06D1236823F00A03F4
:105088002360012380F8253002681C4B9A420ED910
:10509800436C03F01C0202239340194A5360002317
:1050A80080F82430C36A002BDBD09847D9E7436CDB
:1050B80003F01C0202239340124A5360EFE70822D0
:1050C80002FA03F30B42CCD015F0080FC9D02368BD
:1050D80023F00E032360436C03F01C03016C0122D0
:1050E80002FA03F34B60C26380F82520002380F89E
:1050F8002430436B002BB4D09847B2E780000240BD
:10510800000402400000024078B103681A6811F0F8
:10511800100F04D011F4801F04D042F480121A60DA
:105128000020704722F48012F9E701207047000040
:1051380010B4054C616941F0010161610260BFF37F
:105148006F8F436010BC7047004000580C4A536989
:1051580043F480235361EFF3108C72B6402351F867
:10516800042B40F8042B013B13F0FF03F7D1044B49
:105178001B6913F4803FFAD18CF31088704700BF85
:1051880000400058094B5B69002B01DB0020704789
:10519800064B074A9A6002F188329A605B69002BD5
:1051A80001DB002070470120704700BF0040005815
:1051B80023016745054B5A6942F000425A615B6911
:1051C800002B01DB01207047002070470040005889
:1051D80038B50546FCF740FA04461B4B1B6913F427
:1051E800803F06D0FCF738FA001BA842F5D303200D
:1051F80038BD154B1B6913F0010F15D123F47053FB
:1052080023F005031B041B0C0BB10F4A1361ABB948
:105218000D4B1B6913F4802F14D0FCF71DFA001BEB
:10522800A842F5D30320E3E7074A0121116123F4DB
:10523800705323F005031B041B0CE5E7034A536076
:105248000120D5E70020D3E700400058DC07002004
:10525800F8B51F46154B1B78012B25D004460D4683
:105268001646124B01221A7000225A604FF47A70C7
:10527800FFF7AEFF70B9012C10D031462846FFF772
:1052880065FF4FF47A70FFF7A3FF094A536923EAD1
:1052980004035361054B00221A70F8BD32463B46A1
:1052A8002846FFF745FFECE70220F6E7DC07002079
:1052B80000400058034A536943F4803343F0040321
:1052C8005361704700400058184B1B6803F4007383
:1052D800012B06D0154B1B6803F48063012B12D0F9
:1052E8007047124B1A6822F400721A601A6842F466
:1052F80000621A601A6822F400621A601A6842F49E
:1053080000721A60E6E7094B1A6822F480621A6094
:105318001A6842F480521A601A6822F480521A609D
:105328001A6842F480621A60DAE700BF0040005849
:10533800034A536923F47E7323F0020353617047D1
:1053480000400058054A536923F47E7343EAC000BD
:1053580040F4803040F0020050617047004000582F
:10536800F8B51E4B1B78012B35D005460F461B4B55
:1053780001221A7000225A604FF47A70FFF728FF52
:10538800064618BB2B68042B13D04FF0FF333B6045
:105398006C686B68AA681344A34213D92046FFF7C8
:1053A800D1FF4FF47A70FFF713FF064648B901346E
:1053B800EFE7FFF77FFF4FF47A70FFF709FF064624
:1053C80002E03C60FFF7B4FFFFF77EFF034B0022CB
:1053D8001A703046F8BD0226FBE700BFDC07002044
:1053E80070B5002369E085685E000324B44025EAAF
:1053F8000405CC68B4402C438460456825EA0C0554
:105408004C68C4F300149C402C43446066E0DD08FB
:10541800083550F8254003F0070C4FEA8C0C4FF084
:105428000F0E0EFA0CFE24EA0E0E0C6904FA0CF4A8
:1054380044EA0E0440F8254067E0022400E0002416
:1054480004FA0EF42C430CF1020C4B4D45F82C4099
:105458004A4C2568D44325EA0206D1F804C01CF456
:10546800801F01D042EA0506444D2E606D6804EAAB
:105478000506D1F804C01CF4001F01D042EA050655
:105488003E4D6E60D5F8805004EA0506D1F804C098
:105498001CF4803F01D042EA0506384DC5F880600B
:1054A800D5F884502C404E6816F4003F01D042EAEB
:1054B8000504324AC2F8844001330A6832FA03F418
:1054C80058D04FF0010C0CFA03FC1CEA0202F3D08E
:1054D8004C6804F00304013C012C84D94C6804F0A6
:1054E8000304032C0CD0C4685D004FF0030C0CFAC5
:1054F80005FC24EA0C0C8C68AC4044EA0C04C4603B
:105508004C6804F00304022C81D004684FEA430E6F
:105518004FF0030C0CFA0EFC24EA0C0C4C6804F057
:10552800030404FA0EF444EA0C0404604C6814F40E
:10553800403FC1D04FEA930C0CF102050E4C54F8D1
:10554800255003F0030E4FEA8E0E072404FA0EF4DA
:1055580025EA0405B0F1904F3FF471AF084CA04222
:1055680006D004F58064A0423FF467AF072467E7DC
:10557800012465E770BD00BF000001400008005825
:1055880000040048002331FA03F271D0F0B52EE090
:10559800022500E0002505FA0CF5A54249D004686B
:1055A8005D004FF0030C0CFA05FC44EA0C0404609F
:1055B8004FEAD30E0EF1080E50F82E4003F00706FE
:1055C800B6000F25B54024EA050440F82E4084684B
:1055D80024EA0C048460446824EA02024260C26837
:1055E80022EA0C02C260013331FA03F23FD00122F1
:1055F8009A4012EA0107F6D09E08B51C1D4C54F8D3
:10560800254003F0030C4FEA8C0C4FF0070E0EFAFE
:105618000CFE0EEA0404B0F1904FBBD0164DA84220
:1056280005D005F58065A842B2D00725B3E7012566
:10563800B1E7124CD4F8805025EA0705C4F8805029
:10564800D4F8845025EA0705C4F88450256825EA6B
:1056580007052560656825EA07056560054D02367A
:1056680055F8264024EA0E0445F8264097E7F0BD91
:10567800704700BF000001400004004800080058BF
:105688000AB18161704781627047436901EA030288
:1056980021EA030141EA024181617047024A136825
:1056A80043F48073136070470004005810B50C462B
:1056B800A0B90F4B5B6913F4007F0AD10D4A136937
:1056C80023F004031361012C10D040BF20BF20BF7A
:1056D80010BD00F021F80028F0D0F9E7044B5B6911
:1056E80013F4007FEAD100F00FF8E7E730BFEFE7E7
:1056F8000004005800ED00E0024B186800F4C06098
:10570800704700BF00040058024A136843F48043FE
:1057180013607047000400580F4A136823F480434D
:1057280013600E4B1B68322202FB03F30C4AA2FBE8
:1057380003239B0C00E0013B074A526912F4007FE7
:1057480001D0002BF7D1044B5B6913F4007F01D122
:105758000020704703207047000400589C00002078
:1057680083DE1B430C4A136823F0070343F002034C
:1057780013600A4A136943F004031361012808D02F
:1057880040BF20BF20BF054A136923F004031361FB
:10579800704730BFF7E700BF0004005800ED00E095
:1057A80030B589B004468C462A4B93E8030006902E
:1057B800ADF81C1003F1080292E803000490ADF85C
:1057C800141001AD103393E8070085E80700BCF515
:1057D800007F07D0002314E008AA02EB830353F8E4
:1057E8001C5C1EE00023022B08D808AA02EB430227
:1057F80032F8082CA242EFD20133F4E7002510E07A
:105808000133022B0CD808AA02EB430232F8102C01
:10581800A242F5D308AA02EB830353F81C5C00E00C
:1058280000250D4A136823F007032B431360FBF789
:1058380013FF0446084B1B6803F00703AB4206D06E
:10584800FBF70AFF001B0228F4D9032000E0002020
:1058580009B030BD3C4801080040005810B5C0F3FD
:1058680003100C4B53F820404FF0B043D3F80831E5
:1058780003F00F03084A52F82330B4FBF3F4FFF7A0
:105888003BFF0146054BA3FB0434A00CFFF788FF40
:1058980010BD00BFF4690108546A010883DE1B4388
:1058A8004FF0B0439968DB6803F0030311F00C0173
:1058B8000AD00C2906D0042947D008293BD0002259
:1058C800104626E0012BF6D14FF0B0431B6813F0C9
:1058D80008030DD04FF0B0431B6813F0080324D120
:1058E8004FF0B042D2F894202E4A52F823200EE00E
:1058F8004FF0B042126812F0080F12D14FF0B043C7
:10590800D3F89430C3F30323264A52F82320D1B1A5
:1059180000204FF0B0439B6803F00C030C2B1AD007
:1059280070474FF0B0421268EEE74FF0B0431B6883
:10593800C3F30313D8E74FF0B0431A6812F4801288
:1059480006D11948E5E71046E3E700221748E0E7E3
:1059580000221648DDE74FF0B043DB6803F003038D
:10596800022B09D0032B08D14FF0B0431B6813F466
:10597800801F15D10C4A00E00C4A4FF0B041CB68AB
:10598800C3F3062303FB02F2CB68C3F3021301330C
:10599800B2FBF3F2C868400F0130B2FBF0F0BFE78A
:1059A800024AEAE7F46901080048E8010024F40023
:1059B80008B5FFF775FF4FF0B0439B68C3F30313B7
:1059C800024A52F82330B0FBF3F008BD546A0108CC
:1059D800002800F01183F8B504464FF0B0439D68E5
:1059E80005F00C05DE6806F00306036813F0200FC7
:1059F8002AD0002D65D00C2D61D0236A002B00F031
:105A0800BF804FF0B042136843F001031360FBF707
:105A180023FE07464FF0B0431B6813F0020F00F057
:105A2800A7804FF0B0431A6842F008021A601A685B
:105A380022F0F002A16A0A431A60616A5A6822F4E5
:105A48007F4242EA01225A60236813F0010F00F0F6
:105A5800B580082D00F0AE800C2D00F0A8804FF026
:105A6800B042136823F48013A1680B431360636882
:105A7800B3F5803F00F0C480B3F5041F00F0C58083
:105A88004FF0B0431A6822F480321A601A6822F480
:105A980000121A606368002B00F0C280FBF7DCFD7F
:105AA80007464FF0B0431B6813F4003F40F0868070
:105AB800FBF7D2FDC01B6428F3D90320A9E2012E0D
:105AC8009BD1236A002B00F09982A06A4FF0B04363
